{
  "contractName": "Escrow",
  "abi": [
    {
      "constant": true,
      "inputs": [],
      "name": "productCount",
      "outputs": [
        {
          "internalType": "uint256",
          "name": "",
          "type": "uint256"
        }
      ],
      "payable": false,
      "stateMutability": "view",
      "type": "function"
    },
    {
      "constant": true,
      "inputs": [
        {
          "internalType": "uint256",
          "name": "",
          "type": "uint256"
        }
      ],
      "name": "products",
      "outputs": [
        {
          "internalType": "uint256",
          "name": "id",
          "type": "uint256"
        },
        {
          "internalType": "address payable",
          "name": "seller",
          "type": "address"
        },
        {
          "internalType": "address payable",
          "name": "buyer",
          "type": "address"
        },
        {
          "internalType": "address payable",
          "name": "judge",
          "type": "address"
        },
        {
          "internalType": "uint256",
          "name": "amount",
          "type": "uint256"
        },
        {
          "internalType": "uint256",
          "name": "judge_fee",
          "type": "uint256"
        },
        {
          "internalType": "uint256",
          "name": "timestamp",
          "type": "uint256"
        },
        {
          "internalType": "uint256",
          "name": "dispute_time",
          "type": "uint256"
        },
        {
          "internalType": "bool",
          "name": "judge_intervention",
          "type": "bool"
        },
        {
          "internalType": "bool",
          "name": "release_amount_seller",
          "type": "bool"
        },
        {
          "internalType": "bool",
          "name": "refund_amount_buyer",
          "type": "bool"
        },
        {
          "internalType": "bool",
          "name": "available",
          "type": "bool"
        }
      ],
      "payable": false,
      "stateMutability": "view",
      "type": "function"
    },
    {
      "constant": false,
      "inputs": [
        {
          "internalType": "uint256",
          "name": "_amount",
          "type": "uint256"
        }
      ],
      "name": "createProduct",
      "outputs": [],
      "payable": false,
      "stateMutability": "nonpayable",
      "type": "function"
    },
    {
      "constant": false,
      "inputs": [
        {
          "internalType": "uint256",
          "name": "_id",
          "type": "uint256"
        }
      ],
      "name": "purchaseProduct",
      "outputs": [],
      "payable": true,
      "stateMutability": "payable",
      "type": "function"
    },
    {
      "constant": false,
      "inputs": [
        {
          "internalType": "uint256",
          "name": "_id",
          "type": "uint256"
        }
      ],
      "name": "withdrawBySeller",
      "outputs": [],
      "payable": true,
      "stateMutability": "payable",
      "type": "function"
    },
    {
      "constant": false,
      "inputs": [
        {
          "internalType": "uint256",
          "name": "_id",
          "type": "uint256"
        }
      ],
      "name": "createDispute",
      "outputs": [],
      "payable": false,
      "stateMutability": "nonpayable",
      "type": "function"
    }
  ],
  "bytecode": "0x608060405234801561001057600080fd5b50611682806100206000396000f3fe6080604052600436106100555760003560e01c80632a422e921461005a57806338e76a03146100955780634ac8a529146100c35780637acc0b20146100fe5780639042447d1461022e578063e0f6ef871461025c575b600080fd5b34801561006657600080fd5b506100936004803603602081101561007d57600080fd5b8101908080359060200190929190505050610287565b005b6100c1600480360360208110156100ab57600080fd5b81019080803590602001909291905050506104ef565b005b3480156100cf57600080fd5b506100fc600480360360208110156100e657600080fd5b8101908080359060200190929190505050610979565b005b34801561010a57600080fd5b506101376004803603602081101561012157600080fd5b8101908080359060200190929190505050610de4565b604051808d81526020018c73ffffffffffffffffffffffffffffffffffffffff1673ffffffffffffffffffffffffffffffffffffffff1681526020018b73ffffffffffffffffffffffffffffffffffffffff1673ffffffffffffffffffffffffffffffffffffffff1681526020018a73ffffffffffffffffffffffffffffffffffffffff1673ffffffffffffffffffffffffffffffffffffffff168152602001898152602001888152602001878152602001868152602001851515151581526020018415151515815260200183151515158152602001821515151581526020019c5050505050505050505050505060405180910390f35b61025a6004803603602081101561024457600080fd5b8101908080359060200190929190505050610ed8565b005b34801561026857600080fd5b5061027161142b565b6040518082815260200191505060405180910390f35b600080815480929190600101919050555060405180610180016040528060005481526020013373ffffffffffffffffffffffffffffffffffffffff168152602001600073ffffffffffffffffffffffffffffffffffffffff168152602001600073ffffffffffffffffffffffffffffffffffffffff1681526020018281526020016064600284028161031557fe5b048152602001428152602001600081526020016000151581526020016000151581526020016000151581526020016001151581525060016000805481526020019081526020016000206000820151816000015560208201518160010160006101000a81548173ffffffffffffffffffffffffffffffffffffffff021916908373ffffffffffffffffffffffffffffffffffffffff16021790555060408201518160020160006101000a81548173ffffffffffffffffffffffffffffffffffffffff021916908373ffffffffffffffffffffffffffffffffffffffff16021790555060608201518160030160006101000a81548173ffffffffffffffffffffffffffffffffffffffff021916908373ffffffffffffffffffffffffffffffffffffffff1602179055506080820151816004015560a0820151816005015560c0820151816006015560e082015181600701556101008201518160080160006101000a81548160ff0219169083151502179055506101208201518160080160016101000a81548160ff0219169083151502179055506101408201518160080160026101000a81548160ff0219169083151502179055506101608201518160080160036101000a81548160ff02191690831515021790555090505050565b6104f7611431565b6001600083815260200190815260200160002060405180610180016040529081600082015481526020016001820160009054906101000a900473ffffffffffffffffffffffffffffffffffffffff1673ffffffffffffffffffffffffffffffffffffffff1673ffffffffffffffffffffffffffffffffffffffff1681526020016002820160009054906101000a900473ffffffffffffffffffffffffffffffffffffffff1673ffffffffffffffffffffffffffffffffffffffff1673ffffffffffffffffffffffffffffffffffffffff1681526020016003820160009054906101000a900473ffffffffffffffffffffffffffffffffffffffff1673ffffffffffffffffffffffffffffffffffffffff1673ffffffffffffffffffffffffffffffffffffffff168152602001600482015481526020016005820154815260200160068201548152602001600782015481526020016008820160009054906101000a900460ff161515151581526020016008820160019054906101000a900460ff161515151581526020016008820160029054906101000a900460ff161515151581526020016008820160039054906101000a900460ff1615151515815250509050600181610160019015159081151581525061071e576040517f08c379a00000000000000000000000000000000000000000000000000000000081526004018080602001828103825260228152602001806115ab6022913960400191505060405180910390fd5b806080015134101561077b576040517f08c379a000000000000000000000000000000000000000000000000000000000815260040180806020018281038252604481526020018061160a6044913960600191505060405180910390fd5b33816040019073ffffffffffffffffffffffffffffffffffffffff16908173ffffffffffffffffffffffffffffffffffffffff168152505060008161016001901515908115158152505061019042018160e001818152505080600160008481526020019081526020016000206000820151816000015560208201518160010160006101000a81548173ffffffffffffffffffffffffffffffffffffffff021916908373ffffffffffffffffffffffffffffffffffffffff16021790555060408201518160020160006101000a81548173ffffffffffffffffffffffffffffffffffffffff021916908373ffffffffffffffffffffffffffffffffffffffff16021790555060608201518160030160006101000a81548173ffffffffffffffffffffffffffffffffffffffff021916908373ffffffffffffffffffffffffffffffffffffffff1602179055506080820151816004015560a0820151816005015560c0820151816006015560e082015181600701556101008201518160080160006101000a81548160ff0219169083151502179055506101208201518160080160016101000a81548160ff0219169083151502179055506101408201518160080160026101000a81548160ff0219169083151502179055506101608201518160080160036101000a81548160ff0219169083151502179055509050505050565b610981611431565b6001600083815260200190815260200160002060405180610180016040529081600082015481526020016001820160009054906101000a900473ffffffffffffffffffffffffffffffffffffffff1673ffffffffffffffffffffffffffffffffffffffff1673ffffffffffffffffffffffffffffffffffffffff1681526020016002820160009054906101000a900473ffffffffffffffffffffffffffffffffffffffff1673ffffffffffffffffffffffffffffffffffffffff1673ffffffffffffffffffffffffffffffffffffffff1681526020016003820160009054906101000a900473ffffffffffffffffffffffffffffffffffffffff1673ffffffffffffffffffffffffffffffffffffffff1673ffffffffffffffffffffffffffffffffffffffff168152602001600482015481526020016005820154815260200160068201548152602001600782015481526020016008820160009054906101000a900460ff161515151581526020016008820160019054906101000a900460ff161515151581526020016008820160029054906101000a900460ff161515151581526020016008820160039054906101000a900460ff16151515158152505090506000816040015190508073ffffffffffffffffffffffffffffffffffffffff163373ffffffffffffffffffffffffffffffffffffffff1614610bcf576040517f08c379a000000000000000000000000000000000000000000000000000000000815260040180806020018281038252602a815260200180611551602a913960400191505060405180910390fd5b8160e001514210610c2b576040517f08c379a000000000000000000000000000000000000000000000000000000000815260040180806020018281038252604281526020018061150f6042913960600191505060405180910390fd5b60018261010001901515908115158152505081600160008581526020019081526020016000206000820151816000015560208201518160010160006101000a81548173ffffffffffffffffffffffffffffffffffffffff021916908373ffffffffffffffffffffffffffffffffffffffff16021790555060408201518160020160006101000a81548173ffffffffffffffffffffffffffffffffffffffff021916908373ffffffffffffffffffffffffffffffffffffffff16021790555060608201518160030160006101000a81548173ffffffffffffffffffffffffffffffffffffffff021916908373ffffffffffffffffffffffffffffffffffffffff1602179055506080820151816004015560a0820151816005015560c0820151816006015560e082015181600701556101008201518160080160006101000a81548160ff0219169083151502179055506101208201518160080160016101000a81548160ff0219169083151502179055506101408201518160080160026101000a81548160ff0219169083151502179055506101608201518160080160036101000a81548160ff021916908315150217905550905050505050565b60016020528060005260406000206000915090508060000154908060010160009054906101000a900473ffffffffffffffffffffffffffffffffffffffff16908060020160009054906101000a900473ffffffffffffffffffffffffffffffffffffffff16908060030160009054906101000a900473ffffffffffffffffffffffffffffffffffffffff16908060040154908060050154908060060154908060070154908060080160009054906101000a900460ff16908060080160019054906101000a900460ff16908060080160029054906101000a900460ff16908060080160039054906101000a900460ff1690508c565b610ee0611431565b6001600083815260200190815260200160002060405180610180016040529081600082015481526020016001820160009054906101000a900473ffffffffffffffffffffffffffffffffffffffff1673ffffffffffffffffffffffffffffffffffffffff1673ffffffffffffffffffffffffffffffffffffffff1681526020016002820160009054906101000a900473ffffffffffffffffffffffffffffffffffffffff1673ffffffffffffffffffffffffffffffffffffffff1673ffffffffffffffffffffffffffffffffffffffff1681526020016003820160009054906101000a900473ffffffffffffffffffffffffffffffffffffffff1673ffffffffffffffffffffffffffffffffffffffff1673ffffffffffffffffffffffffffffffffffffffff168152602001600482015481526020016005820154815260200160068201548152602001600782015481526020016008820160009054906101000a900460ff161515151581526020016008820160019054906101000a900460ff161515151581526020016008820160029054906101000a900460ff161515151581526020016008820160039054906101000a900460ff16151515158152505090508060e0015142116110fd576040517f08c379a000000000000000000000000000000000000000000000000000000000815260040180806020018281038252603d8152602001806115cd603d913960400191505060405180910390fd5b6000816020015190508073ffffffffffffffffffffffffffffffffffffffff163373ffffffffffffffffffffffffffffffffffffffff161461118a576040517f08c379a000000000000000000000000000000000000000000000000000000000815260040180806020018281038252603081526020018061157b6030913960400191505060405180910390fd5b8160e00151421180156111a05750816101000151155b156111bc576001826101200190151590811515815250506111cf565b6000826101200190151590811515815250505b81600160008581526020019081526020016000206000820151816000015560208201518160010160006101000a81548173ffffffffffffffffffffffffffffffffffffffff021916908373ffffffffffffffffffffffffffffffffffffffff16021790555060408201518160020160006101000a81548173ffffffffffffffffffffffffffffffffffffffff021916908373ffffffffffffffffffffffffffffffffffffffff16021790555060608201518160030160006101000a81548173ffffffffffffffffffffffffffffffffffffffff021916908373ffffffffffffffffffffffffffffffffffffffff1602179055506080820151816004015560a0820151816005015560c0820151816006015560e082015181600701556101008201518160080160006101000a81548160ff0219169083151502179055506101208201518160080160016101000a81548160ff0219169083151502179055506101408201518160080160026101000a81548160ff0219169083151502179055506101608201518160080160036101000a81548160ff02191690831515021790555090505060018261012001901515908115158152506113d7576040517f08c379a00000000000000000000000000000000000000000000000000000000081526004018080602001828103825260328152602001806114dd6032913960400191505060405180910390fd5b816020015173ffffffffffffffffffffffffffffffffffffffff166108fc83608001519081150290604051600060405180830381858888f19350505050158015611425573d6000803e3d6000fd5b50505050565b60005481565b60405180610180016040528060008152602001600073ffffffffffffffffffffffffffffffffffffffff168152602001600073ffffffffffffffffffffffffffffffffffffffff168152602001600073ffffffffffffffffffffffffffffffffffffffff16815260200160008152602001600081526020016000815260200160008152602001600015158152602001600015158152602001600015158152602001600015158152509056fe52656c6561736520616d6f756e74206d757374206265207472756520746f2077697468647261772074686520616d6f756e7442757965722063616e206f6e6c792062652061626c6520746f20726973652074686520646973707574652077697468696e2074686520646973707574652074696d654f6e6c792062757965722063616e2062652061626c6520746f20726973652074686520646973707574654f6e6c792073656e6465722063616e2062652061626c6520746f20706572666f726d20746869732066756e6374696f6e50726f64756374206d75737420626520617661696c61626c6520666f722073616c6553656c6c65722063616e742062652061626c6520746f207769746864726177206869732066756e6473206265666f726520646973707574652074696d65536d61727420636f6e74726163742076616c7565206d757374202062652067726561746572206f7220657175616c20746f207468652070726f6475637420616d6f756e74a265627a7a72315820430b98c19f09233efdbf19aeb763d5881413c34c81eab66aa05d8a99314b233164736f6c63430005100032",
  "source": "pragma solidity ^0.5.0;\n\ncontract Escrow {\n    uint256 public productCount;\n    mapping(uint256 => EscrowProduct) public products;\n\n    struct EscrowProduct {\n        uint256 id;\n        address payable seller;\n        address payable buyer;\n        address payable judge; // Setting judge address by the system based on consensus\n        uint256 amount;\n        uint256 judge_fee;\n        uint256 timestamp;\n        uint256 dispute_time;\n        bool judge_intervention;\n        bool release_amount_seller;\n        bool refund_amount_buyer;\n        bool available;\n    }\n\n    function createProduct(uint256 _amount) public {\n        productCount++;\n        products[productCount] = EscrowProduct(\n            productCount, // setting unique id for each product\n            msg.sender, // seller becomes the one who initiated this function\n            address(0), // buyer address set to default\n            address(0), // judge address set to default\n            _amount, // price of the product\n            (_amount * 2) / 100, // 2% of price of the product set as judge fee\n            now, // time of product creation\n            0, // dispute time set as 0 as default\n            false, // no judge intervention by default\n            false, // no release initiated\n            false, // no refund initiated\n            true // product availability set as true\n        );\n    }\n\n    function purchaseProduct(uint _id) public payable {\n        EscrowProduct memory productModel = products[_id];\n        require(productModel.available = true,'Product must be available for sale');\n        require(msg.value >= productModel.amount,'Smart contract value must  be greater or equal to the product amount');\n\n        productModel.buyer = msg.sender; // Setting the buyer for the product\n\n        productModel.available = false;  //As buyer initiated this transaction this is set to false temporarily\n\n        productModel.dispute_time = now + 400; // Dispute time initiated upto 24 hours from now\n\n        products[_id] = productModel; // changing the orginal product again by using memory\n    }\n\n    function withdrawBySeller(uint _id) public payable {\n        EscrowProduct memory productModel = products[_id];\n        require(now > productModel.dispute_time,'Seller cant be able to withdraw his funds before dispute time');\n         address payable _seller = productModel.seller;\n        require(msg.sender == _seller,'Only sender can be able to perform this function');\n        if(now > productModel.dispute_time && !productModel.judge_intervention) {\n            productModel.release_amount_seller = true;\n        } else{\n            productModel.release_amount_seller = false;\n        }\n        products[_id] = productModel;\n        require(productModel.release_amount_seller = true,'Release amount must be true to withdraw the amount');\n\n        productModel.seller.transfer(productModel.amount); // Transfer product amount to the seller of the product\n    }\n\n    function createDispute(uint _id) public {\n        EscrowProduct memory productModel = products[_id];\n        address payable _buyer = productModel.buyer;\n        require(msg.sender == _buyer,'Only buyer can be able to rise the dispute');\n        require(now < productModel.dispute_time,'Buyer can only be able to rise the dispute within the dispute time');\n        productModel.judge_intervention = true;\n        products[_id] = productModel;\n    }\n}\n",
  "sourcePath": "/media/dinesh/Workstations/Blockchain/Ethereum Projects/Escrow-DApp/src/contracts/Escrow.sol",
  "compiler": {
    "name": "solc",
    "version": "0.5.16+commit.9c3226ce.Emscripten.clang"
  },
  "schemaVersion": "3.0.23",
  "updatedAt": "2020-06-13T06:16:20.781Z",
  "networkType": "ethereum",
  "devdoc": {
    "methods": {}
  },
  "userdoc": {
    "methods": {}
  }
}