{
  "contractName": "Escrow",
  "abi": [
    {
      "constant": true,
      "inputs": [],
      "name": "productCount",
      "outputs": [
        {
          "internalType": "uint256",
          "name": "",
          "type": "uint256"
        }
      ],
      "payable": false,
      "stateMutability": "view",
      "type": "function"
    },
    {
      "constant": true,
      "inputs": [
        {
          "internalType": "uint256",
          "name": "",
          "type": "uint256"
        }
      ],
      "name": "products",
      "outputs": [
        {
          "internalType": "uint256",
          "name": "id",
          "type": "uint256"
        },
        {
          "internalType": "address payable",
          "name": "seller",
          "type": "address"
        },
        {
          "internalType": "address payable",
          "name": "buyer",
          "type": "address"
        },
        {
          "internalType": "address payable",
          "name": "judge",
          "type": "address"
        },
        {
          "internalType": "uint256",
          "name": "amount",
          "type": "uint256"
        },
        {
          "internalType": "uint256",
          "name": "judge_fee",
          "type": "uint256"
        },
        {
          "internalType": "uint256",
          "name": "timestamp",
          "type": "uint256"
        },
        {
          "internalType": "uint256",
          "name": "dispute_time",
          "type": "uint256"
        },
        {
          "internalType": "bool",
          "name": "judge_intervention",
          "type": "bool"
        },
        {
          "internalType": "bool",
          "name": "release_amount_seller",
          "type": "bool"
        },
        {
          "internalType": "bool",
          "name": "refund_amount_buyer",
          "type": "bool"
        },
        {
          "internalType": "bool",
          "name": "seller_response_within_time",
          "type": "bool"
        },
        {
          "internalType": "bool",
          "name": "available",
          "type": "bool"
        }
      ],
      "payable": false,
      "stateMutability": "view",
      "type": "function"
    },
    {
      "constant": false,
      "inputs": [
        {
          "internalType": "uint256",
          "name": "_amount",
          "type": "uint256"
        }
      ],
      "name": "createProduct",
      "outputs": [],
      "payable": false,
      "stateMutability": "nonpayable",
      "type": "function"
    },
    {
      "constant": false,
      "inputs": [
        {
          "internalType": "uint256",
          "name": "_id",
          "type": "uint256"
        }
      ],
      "name": "purchaseProduct",
      "outputs": [],
      "payable": true,
      "stateMutability": "payable",
      "type": "function"
    },
    {
      "constant": false,
      "inputs": [
        {
          "internalType": "uint256",
          "name": "_id",
          "type": "uint256"
        }
      ],
      "name": "withdrawBySeller",
      "outputs": [],
      "payable": true,
      "stateMutability": "payable",
      "type": "function"
    },
    {
      "constant": false,
      "inputs": [
        {
          "internalType": "uint256",
          "name": "_id",
          "type": "uint256"
        }
      ],
      "name": "createDispute",
      "outputs": [],
      "payable": true,
      "stateMutability": "payable",
      "type": "function"
    },
    {
      "constant": false,
      "inputs": [
        {
          "internalType": "uint256",
          "name": "_id",
          "type": "uint256"
        }
      ],
      "name": "participateInDisputeBySeller",
      "outputs": [],
      "payable": true,
      "stateMutability": "payable",
      "type": "function"
    },
    {
      "constant": false,
      "inputs": [
        {
          "internalType": "uint256",
          "name": "_id",
          "type": "uint256"
        }
      ],
      "name": "withdrawByBuyer",
      "outputs": [],
      "payable": true,
      "stateMutability": "payable",
      "type": "function"
    },
    {
      "constant": false,
      "inputs": [
        {
          "internalType": "uint256",
          "name": "_id",
          "type": "uint256"
        }
      ],
      "name": "clearDispute",
      "outputs": [],
      "payable": false,
      "stateMutability": "nonpayable",
      "type": "function"
    }
  ],
  "bytecode": "0x608060405234801561001057600080fd5b5061290a806100206000396000f3fe6080604052600436106100865760003560e01c80636e873515116100595780636e8735151461015d5780637acc0b201461018b5780639042447d146102c6578063e0f6ef87146102f4578063ea2d349d1461031f57610086565b80632a422e921461008b57806338e76a03146100c65780634ac8a529146100f4578063678f412314610122575b600080fd5b34801561009757600080fd5b506100c4600480360360208110156100ae57600080fd5b810190808035906020019092919050505061034d565b005b6100f2600480360360208110156100dc57600080fd5b81019080803590602001909291905050506105df565b005b6101206004803603602081101561010a57600080fd5b8101908080359060200190929190505050610aa5565b005b34801561012e57600080fd5b5061015b6004803603602081101561014557600080fd5b8101908080359060200190929190505050610fa8565b005b6101896004803603602081101561017357600080fd5b8101908080359060200190929190505050611494565b005b34801561019757600080fd5b506101c4600480360360208110156101ae57600080fd5b81019080803590602001909291905050506119a1565b604051808e81526020018d73ffffffffffffffffffffffffffffffffffffffff1673ffffffffffffffffffffffffffffffffffffffff1681526020018c73ffffffffffffffffffffffffffffffffffffffff1673ffffffffffffffffffffffffffffffffffffffff1681526020018b73ffffffffffffffffffffffffffffffffffffffff1673ffffffffffffffffffffffffffffffffffffffff1681526020018a815260200189815260200188815260200187815260200186151515158152602001851515151581526020018415151515815260200183151515158152602001821515151581526020019d505050505050505050505050505060405180910390f35b6102f2600480360360208110156102dc57600080fd5b8101908080359060200190929190505050611aa8565b005b34801561030057600080fd5b50610309612037565b6040518082815260200191505060405180910390f35b61034b6004803603602081101561033557600080fd5b810190808035906020019092919050505061203d565b005b6000808154809291906001019190505550604051806101a0016040528060005481526020013373ffffffffffffffffffffffffffffffffffffffff168152602001600073ffffffffffffffffffffffffffffffffffffffff168152602001600073ffffffffffffffffffffffffffffffffffffffff168152602001828152602001606460028402816103db57fe5b048152602001428152602001600081526020016000151581526020016000151581526020016000151581526020016000151581526020016001151581525060016000805481526020019081526020016000206000820151816000015560208201518160010160006101000a81548173ffffffffffffffffffffffffffffffffffffffff021916908373ffffffffffffffffffffffffffffffffffffffff16021790555060408201518160020160006101000a81548173ffffffffffffffffffffffffffffffffffffffff021916908373ffffffffffffffffffffffffffffffffffffffff16021790555060608201518160030160006101000a81548173ffffffffffffffffffffffffffffffffffffffff021916908373ffffffffffffffffffffffffffffffffffffffff1602179055506080820151816004015560a0820151816005015560c0820151816006015560e082015181600701556101008201518160080160006101000a81548160ff0219169083151502179055506101208201518160080160016101000a81548160ff0219169083151502179055506101408201518160080160026101000a81548160ff0219169083151502179055506101608201518160080160036101000a81548160ff0219169083151502179055506101808201518160080160046101000a81548160ff02191690831515021790555090505050565b6105e7612537565b60016000838152602001908152602001600020604051806101a0016040529081600082015481526020016001820160009054906101000a900473ffffffffffffffffffffffffffffffffffffffff1673ffffffffffffffffffffffffffffffffffffffff1673ffffffffffffffffffffffffffffffffffffffff1681526020016002820160009054906101000a900473ffffffffffffffffffffffffffffffffffffffff1673ffffffffffffffffffffffffffffffffffffffff1673ffffffffffffffffffffffffffffffffffffffff1681526020016003820160009054906101000a900473ffffffffffffffffffffffffffffffffffffffff1673ffffffffffffffffffffffffffffffffffffffff1673ffffffffffffffffffffffffffffffffffffffff168152602001600482015481526020016005820154815260200160068201548152602001600782015481526020016008820160009054906101000a900460ff161515151581526020016008820160019054906101000a900460ff161515151581526020016008820160029054906101000a900460ff161515151581526020016008820160039054906101000a900460ff161515151581526020016008820160049054906101000a900460ff16151515158152505090506001816101800190151590811515815250610829576040517f08c379a00000000000000000000000000000000000000000000000000000000081526004018080602001828103825260228152602001806127cd6022913960400191505060405180910390fd5b8060800151341015610886576040517f08c379a000000000000000000000000000000000000000000000000000000000815260040180806020018281038252604481526020018061285e6044913960600191505060405180910390fd5b33816040019073ffffffffffffffffffffffffffffffffffffffff16908173ffffffffffffffffffffffffffffffffffffffff168152505060008161018001901515908115158152505061019042018160e001818152505080600160008481526020019081526020016000206000820151816000015560208201518160010160006101000a81548173ffffffffffffffffffffffffffffffffffffffff021916908373ffffffffffffffffffffffffffffffffffffffff16021790555060408201518160020160006101000a81548173ffffffffffffffffffffffffffffffffffffffff021916908373ffffffffffffffffffffffffffffffffffffffff16021790555060608201518160030160006101000a81548173ffffffffffffffffffffffffffffffffffffffff021916908373ffffffffffffffffffffffffffffffffffffffff1602179055506080820151816004015560a0820151816005015560c0820151816006015560e082015181600701556101008201518160080160006101000a81548160ff0219169083151502179055506101208201518160080160016101000a81548160ff0219169083151502179055506101408201518160080160026101000a81548160ff0219169083151502179055506101608201518160080160036101000a81548160ff0219169083151502179055506101808201518160080160046101000a81548160ff0219169083151502179055509050505050565b610aad612537565b60016000838152602001908152602001600020604051806101a0016040529081600082015481526020016001820160009054906101000a900473ffffffffffffffffffffffffffffffffffffffff1673ffffffffffffffffffffffffffffffffffffffff1673ffffffffffffffffffffffffffffffffffffffff1681526020016002820160009054906101000a900473ffffffffffffffffffffffffffffffffffffffff1673ffffffffffffffffffffffffffffffffffffffff1673ffffffffffffffffffffffffffffffffffffffff1681526020016003820160009054906101000a900473ffffffffffffffffffffffffffffffffffffffff1673ffffffffffffffffffffffffffffffffffffffff1673ffffffffffffffffffffffffffffffffffffffff168152602001600482015481526020016005820154815260200160068201548152602001600782015481526020016008820160009054906101000a900460ff161515151581526020016008820160019054906101000a900460ff161515151581526020016008820160029054906101000a900460ff161515151581526020016008820160039054906101000a900460ff161515151581526020016008820160049054906101000a900460ff16151515158152505090506000816040015190508073ffffffffffffffffffffffffffffffffffffffff163373ffffffffffffffffffffffffffffffffffffffff1614610d16576040517f08c379a000000000000000000000000000000000000000000000000000000000815260040180806020018281038252602a815260200180612700602a913960400191505060405180910390fd5b8160e001514210610d72576040517f08c379a00000000000000000000000000000000000000000000000000000000081526004018080602001828103825260428152602001806126be6042913960600191505060405180910390fd5b8160a001513414610dce576040517f08c379a00000000000000000000000000000000000000000000000000000000081526004018080602001828103825260348152602001806128a26034913960400191505060405180910390fd5b60018261010001901515908115158152505081600160008581526020019081526020016000206000820151816000015560208201518160010160006101000a81548173ffffffffffffffffffffffffffffffffffffffff021916908373ffffffffffffffffffffffffffffffffffffffff16021790555060408201518160020160006101000a81548173ffffffffffffffffffffffffffffffffffffffff021916908373ffffffffffffffffffffffffffffffffffffffff16021790555060608201518160030160006101000a81548173ffffffffffffffffffffffffffffffffffffffff021916908373ffffffffffffffffffffffffffffffffffffffff1602179055506080820151816004015560a0820151816005015560c0820151816006015560e082015181600701556101008201518160080160006101000a81548160ff0219169083151502179055506101208201518160080160016101000a81548160ff0219169083151502179055506101408201518160080160026101000a81548160ff0219169083151502179055506101608201518160080160036101000a81548160ff0219169083151502179055506101808201518160080160046101000a81548160ff021916908315150217905550905050505050565b610fb0612537565b60016000838152602001908152602001600020604051806101a0016040529081600082015481526020016001820160009054906101000a900473ffffffffffffffffffffffffffffffffffffffff1673ffffffffffffffffffffffffffffffffffffffff1673ffffffffffffffffffffffffffffffffffffffff1681526020016002820160009054906101000a900473ffffffffffffffffffffffffffffffffffffffff1673ffffffffffffffffffffffffffffffffffffffff1673ffffffffffffffffffffffffffffffffffffffff1681526020016003820160009054906101000a900473ffffffffffffffffffffffffffffffffffffffff1673ffffffffffffffffffffffffffffffffffffffff1673ffffffffffffffffffffffffffffffffffffffff168152602001600482015481526020016005820154815260200160068201548152602001600782015481526020016008820160009054906101000a900460ff161515151581526020016008820160019054906101000a900460ff161515151581526020016008820160029054906101000a900460ff161515151581526020016008820160039054906101000a900460ff161515151581526020016008820160049054906101000a900460ff161515151581525050905060018161010001901515908115158152506111f2576040517f08c379a000000000000000000000000000000000000000000000000000000000815260040180806020018281038252603c815260200180612653603c913960400191505060405180910390fd5b6001816101600190151590811515815250611258576040517f08c379a00000000000000000000000000000000000000000000000000000000081526004018080602001828103825260448152602001806127596044913960600191505060405180910390fd5b33816060019073ffffffffffffffffffffffffffffffffffffffff16908173ffffffffffffffffffffffffffffffffffffffff168152505060008214156112b0576001816101200190151590811515815250506112cd565b60018214156112cc576001816101400190151590811515815250505b5b80600160008481526020019081526020016000206000820151816000015560208201518160010160006101000a81548173ffffffffffffffffffffffffffffffffffffffff021916908373ffffffffffffffffffffffffffffffffffffffff16021790555060408201518160020160006101000a81548173ffffffffffffffffffffffffffffffffffffffff021916908373ffffffffffffffffffffffffffffffffffffffff16021790555060608201518160030160006101000a81548173ffffffffffffffffffffffffffffffffffffffff021916908373ffffffffffffffffffffffffffffffffffffffff1602179055506080820151816004015560a0820151816005015560c0820151816006015560e082015181600701556101008201518160080160006101000a81548160ff0219169083151502179055506101208201518160080160016101000a81548160ff0219169083151502179055506101408201518160080160026101000a81548160ff0219169083151502179055506101608201518160080160036101000a81548160ff0219169083151502179055506101808201518160080160046101000a81548160ff0219169083151502179055509050505050565b61149c612537565b60016000838152602001908152602001600020604051806101a0016040529081600082015481526020016001820160009054906101000a900473ffffffffffffffffffffffffffffffffffffffff1673ffffffffffffffffffffffffffffffffffffffff1673ffffffffffffffffffffffffffffffffffffffff1681526020016002820160009054906101000a900473ffffffffffffffffffffffffffffffffffffffff1673ffffffffffffffffffffffffffffffffffffffff1673ffffffffffffffffffffffffffffffffffffffff1681526020016003820160009054906101000a900473ffffffffffffffffffffffffffffffffffffffff1673ffffffffffffffffffffffffffffffffffffffff1673ffffffffffffffffffffffffffffffffffffffff168152602001600482015481526020016005820154815260200160068201548152602001600782015481526020016008820160009054906101000a900460ff161515151581526020016008820160019054906101000a900460ff161515151581526020016008820160029054906101000a900460ff161515151581526020016008820160039054906101000a900460ff161515151581526020016008820160049054906101000a900460ff161515151581525050905060018161010001901515908115158152506116de576040517f08c379a000000000000000000000000000000000000000000000000000000000815260040180806020018281038252602f81526020018061268f602f913960400191505060405180910390fd5b8060a00151341461173a576040517f08c379a00000000000000000000000000000000000000000000000000000000081526004018080602001828103825260358152602001806125ec6035913960400191505060405180910390fd5b6000816020015190508073ffffffffffffffffffffffffffffffffffffffff163373ffffffffffffffffffffffffffffffffffffffff16146117c7576040517f08c379a000000000000000000000000000000000000000000000000000000000815260040180806020018281038252603081526020018061279d6030913960400191505060405180910390fd5b60018261016001901515908115158152505081600160008581526020019081526020016000206000820151816000015560208201518160010160006101000a81548173ffffffffffffffffffffffffffffffffffffffff021916908373ffffffffffffffffffffffffffffffffffffffff16021790555060408201518160020160006101000a81548173ffffffffffffffffffffffffffffffffffffffff021916908373ffffffffffffffffffffffffffffffffffffffff16021790555060608201518160030160006101000a81548173ffffffffffffffffffffffffffffffffffffffff021916908373ffffffffffffffffffffffffffffffffffffffff1602179055506080820151816004015560a0820151816005015560c0820151816006015560e082015181600701556101008201518160080160006101000a81548160ff0219169083151502179055506101208201518160080160016101000a81548160ff0219169083151502179055506101408201518160080160026101000a81548160ff0219169083151502179055506101608201518160080160036101000a81548160ff0219169083151502179055506101808201518160080160046101000a81548160ff021916908315150217905550905050505050565b60016020528060005260406000206000915090508060000154908060010160009054906101000a900473ffffffffffffffffffffffffffffffffffffffff16908060020160009054906101000a900473ffffffffffffffffffffffffffffffffffffffff16908060030160009054906101000a900473ffffffffffffffffffffffffffffffffffffffff16908060040154908060050154908060060154908060070154908060080160009054906101000a900460ff16908060080160019054906101000a900460ff16908060080160029054906101000a900460ff16908060080160039054906101000a900460ff16908060080160049054906101000a900460ff1690508d565b611ab0612537565b60016000838152602001908152602001600020604051806101a0016040529081600082015481526020016001820160009054906101000a900473ffffffffffffffffffffffffffffffffffffffff1673ffffffffffffffffffffffffffffffffffffffff1673ffffffffffffffffffffffffffffffffffffffff1681526020016002820160009054906101000a900473ffffffffffffffffffffffffffffffffffffffff1673ffffffffffffffffffffffffffffffffffffffff1673ffffffffffffffffffffffffffffffffffffffff1681526020016003820160009054906101000a900473ffffffffffffffffffffffffffffffffffffffff1673ffffffffffffffffffffffffffffffffffffffff1673ffffffffffffffffffffffffffffffffffffffff168152602001600482015481526020016005820154815260200160068201548152602001600782015481526020016008820160009054906101000a900460ff161515151581526020016008820160019054906101000a900460ff161515151581526020016008820160029054906101000a900460ff161515151581526020016008820160039054906101000a900460ff161515151581526020016008820160049054906101000a900460ff16151515158152505090508060e001514211611ce8576040517f08c379a000000000000000000000000000000000000000000000000000000000815260040180806020018281038252603d815260200180612821603d913960400191505060405180910390fd5b6000816020015190508073ffffffffffffffffffffffffffffffffffffffff163373ffffffffffffffffffffffffffffffffffffffff1614611d75576040517f08c379a000000000000000000000000000000000000000000000000000000000815260040180806020018281038252603081526020018061279d6030913960400191505060405180910390fd5b8160e0015142118015611d8b5750816101000151155b15611da757600182610120019015159081151581525050611dba565b6000826101200190151590811515815250505b81600160008581526020019081526020016000206000820151816000015560208201518160010160006101000a81548173ffffffffffffffffffffffffffffffffffffffff021916908373ffffffffffffffffffffffffffffffffffffffff16021790555060408201518160020160006101000a81548173ffffffffffffffffffffffffffffffffffffffff021916908373ffffffffffffffffffffffffffffffffffffffff16021790555060608201518160030160006101000a81548173ffffffffffffffffffffffffffffffffffffffff021916908373ffffffffffffffffffffffffffffffffffffffff1602179055506080820151816004015560a0820151816005015560c0820151816006015560e082015181600701556101008201518160080160006101000a81548160ff0219169083151502179055506101208201518160080160016101000a81548160ff0219169083151502179055506101408201518160080160026101000a81548160ff0219169083151502179055506101608201518160080160036101000a81548160ff0219169083151502179055506101808201518160080160046101000a81548160ff0219169083151502179055509050506001826101200190151590811515815250611fe3576040517f08c379a00000000000000000000000000000000000000000000000000000000081526004018080602001828103825260328152602001806126216032913960400191505060405180910390fd5b816020015173ffffffffffffffffffffffffffffffffffffffff166108fc83608001519081150290604051600060405180830381858888f19350505050158015612031573d6000803e3d6000fd5b50505050565b60005481565b612045612537565b60016000838152602001908152602001600020604051806101a0016040529081600082015481526020016001820160009054906101000a900473ffffffffffffffffffffffffffffffffffffffff1673ffffffffffffffffffffffffffffffffffffffff1673ffffffffffffffffffffffffffffffffffffffff1681526020016002820160009054906101000a900473ffffffffffffffffffffffffffffffffffffffff1673ffffffffffffffffffffffffffffffffffffffff1673ffffffffffffffffffffffffffffffffffffffff1681526020016003820160009054906101000a900473ffffffffffffffffffffffffffffffffffffffff1673ffffffffffffffffffffffffffffffffffffffff1673ffffffffffffffffffffffffffffffffffffffff168152602001600482015481526020016005820154815260200160068201548152602001600782015481526020016008820160009054906101000a900460ff161515151581526020016008820160019054906101000a900460ff161515151581526020016008820160029054906101000a900460ff161515151581526020016008820160039054906101000a900460ff161515151581526020016008820160049054906101000a900460ff16151515158152505090506000816040015190508073ffffffffffffffffffffffffffffffffffffffff163373ffffffffffffffffffffffffffffffffffffffff16146122ae576040517f08c379a000000000000000000000000000000000000000000000000000000000815260040180806020018281038252602f81526020018061272a602f913960400191505060405180910390fd5b6001826101200190151590811515815250612314576040517f08c379a00000000000000000000000000000000000000000000000000000000081526004018080602001828103825260328152602001806127ef6032913960400191505060405180910390fd5b60008260a001518360800151019050826040015173ffffffffffffffffffffffffffffffffffffffff166108fc829081150290604051600060405180830381858888f1935050505015801561236d573d6000803e3d6000fd5b5082600160008681526020019081526020016000206000820151816000015560208201518160010160006101000a81548173ffffffffffffffffffffffffffffffffffffffff021916908373ffffffffffffffffffffffffffffffffffffffff16021790555060408201518160020160006101000a81548173ffffffffffffffffffffffffffffffffffffffff021916908373ffffffffffffffffffffffffffffffffffffffff16021790555060608201518160030160006101000a81548173ffffffffffffffffffffffffffffffffffffffff021916908373ffffffffffffffffffffffffffffffffffffffff1602179055506080820151816004015560a0820151816005015560c0820151816006015560e082015181600701556101008201518160080160006101000a81548160ff0219169083151502179055506101208201518160080160016101000a81548160ff0219169083151502179055506101408201518160080160026101000a81548160ff0219169083151502179055506101608201518160080160036101000a81548160ff0219169083151502179055506101808201518160080160046101000a81548160ff02191690831515021790555090505050505050565b604051806101a0016040528060008152602001600073ffffffffffffffffffffffffffffffffffffffff168152602001600073ffffffffffffffffffffffffffffffffffffffff168152602001600073ffffffffffffffffffffffffffffffffffffffff16815260200160008152602001600081526020016000815260200160008152602001600015158152602001600015158152602001600015158152602001600015158152602001600015158152509056fe53656c6c6572206e6565647320746f2070617920746865206a756467652066656520746f206372656174652061206469737075746552656c6561736520616d6f756e74206d757374206265207472756520746f2077697468647261772074686520616d6f756e744275796572206e6565647320746f206164642064697370757465206265666f7265206a7564676520636c656172696e672074686520646973707574654275796572206e6565647320746f206164642064697370757465206265666f72652070617274696369706174696e6742757965722063616e206f6e6c792062652061626c6520746f20726973652074686520646973707574652077697468696e2074686520646973707574652074696d654f6e6c792062757965722063616e2062652061626c6520746f20726973652074686520646973707574654f6e6c792062757965722063616e2062652061626c6520746f206578656375746520746869732066756e6374696f6e53656c6c657220616c736f206e6565647320746f20626520696e2064697370757465206265666f7265206a7564676520636c656172696e672074686520646973707574654f6e6c792073656e6465722063616e2062652061626c6520746f20706572666f726d20746869732066756e6374696f6e50726f64756374206d75737420626520617661696c61626c6520666f722073616c6552656c656173655f616d6f756e74206d757374206265207472756520746f2077697468647261772074686520616d6f756e7453656c6c65722063616e742062652061626c6520746f207769746864726177206869732066756e6473206265666f726520646973707574652074696d65536d61727420636f6e74726163742076616c7565206d757374202062652067726561746572206f7220657175616c20746f207468652070726f6475637420616d6f756e744275796572206e6565647320746f2070617920746865206a756467652066656520746f2063726561746520612064697370757465a265627a7a72315820eb8e5657228fcab306328e1e7c470feb7e5c1370728051d421c6b9044759453d64736f6c63430005100032",
  "source": "pragma solidity ^0.5.0;\n\ncontract Escrow {\n    uint256 public productCount;\n    mapping(uint256 => EscrowProduct) public products;\n\n    struct EscrowProduct {\n        uint256 id;\n        address payable seller;\n        address payable buyer;\n        address payable judge; // Setting judge address by the system based on consensus\n        uint256 amount;\n        uint256 judge_fee;\n        uint256 timestamp;\n        uint256 dispute_time;\n        bool judge_intervention;\n        bool release_amount_seller;\n        bool refund_amount_buyer;\n        bool seller_response_within_time;\n        bool available;\n    }\n\n    function createProduct(uint256 _amount) public {\n        productCount++;\n        products[productCount] = EscrowProduct(\n            productCount, // setting unique id for each product\n            msg.sender, // seller becomes the one who initiated this function\n            address(0), // buyer address set to default\n            address(0), // judge address set to default\n            _amount, // price of the product\n            (_amount * 2) / 100, // 2% of price of the product set as judge fee\n            now, // time of product creation\n            0, // dispute time set as 0 as default\n            false, // no judge intervention by default\n            false, // no release initiated\n            false, // no refund initiated\n            false, // intially set to false\n            true // product availability set as true\n        );\n    }\n\n    function purchaseProduct(uint _id) public payable {\n        EscrowProduct memory productModel = products[_id];\n        require(productModel.available = true,'Product must be available for sale');\n        require(msg.value >= productModel.amount,'Smart contract value must  be greater or equal to the product amount');\n\n        productModel.buyer = msg.sender; // Setting the buyer for the product\n\n        productModel.available = false;  //As buyer initiated this transaction this is set to false temporarily\n\n        productModel.dispute_time = now + 400; // Dispute time initiated upto 24 hours from now\n\n        products[_id] = productModel; // changing the orginal product again by using memory\n    }\n\n    function withdrawBySeller(uint _id) public payable {\n        EscrowProduct memory productModel = products[_id];\n        require(now > productModel.dispute_time,'Seller cant be able to withdraw his funds before dispute time');\n        address payable _seller = productModel.seller;\n        require(msg.sender == _seller,'Only sender can be able to perform this function');\n        if(now > productModel.dispute_time && !productModel.judge_intervention) {\n            productModel.release_amount_seller = true;\n        } else{\n            productModel.release_amount_seller = false;\n        }\n        products[_id] = productModel;\n        require(productModel.release_amount_seller = true,'Release amount must be true to withdraw the amount');\n\n        productModel.seller.transfer(productModel.amount); // Transfer product amount to the seller of the product\n    }\n\n    function createDispute(uint _id) public payable {\n        EscrowProduct memory productModel = products[_id];\n        address payable _buyer = productModel.buyer;\n        require(msg.sender == _buyer,'Only buyer can be able to rise the dispute');\n        require(now < productModel.dispute_time,'Buyer can only be able to rise the dispute within the dispute time');\n        require(msg.value == productModel.judge_fee,'Buyer needs to pay the judge fee to create a dispute');\n        productModel.judge_intervention = true;\n        products[_id] = productModel;\n    }\n\n    function participateInDisputeBySeller(uint _id) public payable {\n        EscrowProduct memory productModel = products[_id];\n        require(productModel.judge_intervention = true,'Buyer needs to add dispute before participating');\n        require(msg.value == productModel.judge_fee,'Seller needs to pay the judge fee to create a dispute');\n        address payable _seller = productModel.seller;\n        require(msg.sender == _seller,'Only sender can be able to perform this function');\n        productModel.seller_response_within_time = true;\n        products[_id] = productModel;\n    }\n\n    function withdrawByBuyer(uint _id) public payable {\n        EscrowProduct memory productModel = products[_id];\n        address payable _buyer = productModel.buyer;\n        require(msg.sender == _buyer,'Only buyer can be able to execute this function');\n        require(productModel.release_amount_seller = true,'Release_amount must be true to withdraw the amount');\n        uint256 withdrawablebuyerAmount = productModel.amount + productModel.judge_fee;\n        productModel.buyer.transfer(withdrawablebuyerAmount); // Transfer product amount to the seller of the product\n        products[_id] = productModel;\n    }\n\n    function clearDispute(uint _id) public { // In the function we'll take 0 and 1 as arguments from front end\n        EscrowProduct memory productModel = products[_id];\n        require(productModel.judge_intervention = true,'Buyer needs to add dispute before judge clearing the dispute');\n        require(productModel.seller_response_within_time = true,'Seller also needs to be in dispute before judge clearing the dispute');\n        productModel.judge = msg.sender; // Temporarirly fixing the judge by the one who initiates this transaction\n        if(_id == 0) {\n            productModel.release_amount_seller = true; // In this condition seller can be able to withdraw his/her funds\n        } else if(_id == 1) {\n            productModel.refund_amount_buyer = true; // In this condition buyer can be able to withdraw his/her funds\n        }\n        products[_id] = productModel;\n    }\n}\n",
  "sourcePath": "/media/dinesh/Workstations/Blockchain/Ethereum Projects/Escrow-DApp/src/contracts/Escrow.sol",
  "compiler": {
    "name": "solc",
    "version": "0.5.16+commit.9c3226ce.Emscripten.clang"
  },
  "schemaVersion": "3.0.23",
  "updatedAt": "2020-06-13T07:01:59.080Z",
  "networkType": "ethereum",
  "devdoc": {
    "methods": {}
  },
  "userdoc": {
    "methods": {}
  }
}