{
  "contractName": "Escrow",
  "abi": [
    {
      "constant": true,
      "inputs": [],
      "name": "productCount",
      "outputs": [
        {
          "internalType": "uint256",
          "name": "",
          "type": "uint256"
        }
      ],
      "payable": false,
      "stateMutability": "view",
      "type": "function"
    },
    {
      "constant": true,
      "inputs": [
        {
          "internalType": "uint256",
          "name": "",
          "type": "uint256"
        }
      ],
      "name": "products",
      "outputs": [
        {
          "internalType": "uint256",
          "name": "id",
          "type": "uint256"
        },
        {
          "internalType": "address",
          "name": "seller",
          "type": "address"
        },
        {
          "internalType": "address",
          "name": "buyer",
          "type": "address"
        },
        {
          "internalType": "address",
          "name": "judge",
          "type": "address"
        },
        {
          "internalType": "uint256",
          "name": "amount",
          "type": "uint256"
        },
        {
          "internalType": "uint256",
          "name": "judge_fee",
          "type": "uint256"
        },
        {
          "internalType": "uint256",
          "name": "timestamp",
          "type": "uint256"
        },
        {
          "internalType": "uint256",
          "name": "dispute_time",
          "type": "uint256"
        },
        {
          "internalType": "bool",
          "name": "judge_intervention",
          "type": "bool"
        },
        {
          "internalType": "bool",
          "name": "release_amount_seller",
          "type": "bool"
        },
        {
          "internalType": "bool",
          "name": "refund_amount_buyer",
          "type": "bool"
        },
        {
          "internalType": "bool",
          "name": "available",
          "type": "bool"
        }
      ],
      "payable": false,
      "stateMutability": "view",
      "type": "function"
    },
    {
      "constant": false,
      "inputs": [
        {
          "internalType": "uint256",
          "name": "_amount",
          "type": "uint256"
        }
      ],
      "name": "createProduct",
      "outputs": [],
      "payable": false,
      "stateMutability": "nonpayable",
      "type": "function"
    },
    {
      "constant": false,
      "inputs": [
        {
          "internalType": "uint256",
          "name": "_id",
          "type": "uint256"
        }
      ],
      "name": "purchaseProduct",
      "outputs": [],
      "payable": true,
      "stateMutability": "payable",
      "type": "function"
    }
  ],
  "bytecode": "0x608060405234801561001057600080fd5b50610b20806100206000396000f3fe60806040526004361061003f5760003560e01c80632a422e921461004457806338e76a031461007f5780637acc0b20146100ad578063e0f6ef87146101dd575b600080fd5b34801561005057600080fd5b5061007d6004803603602081101561006757600080fd5b8101908080359060200190929190505050610208565b005b6100ab6004803603602081101561009557600080fd5b8101908080359060200190929190505050610470565b005b3480156100b957600080fd5b506100e6600480360360208110156100d057600080fd5b81019080803590602001909291905050506108f8565b604051808d81526020018c73ffffffffffffffffffffffffffffffffffffffff1673ffffffffffffffffffffffffffffffffffffffff1681526020018b73ffffffffffffffffffffffffffffffffffffffff1673ffffffffffffffffffffffffffffffffffffffff1681526020018a73ffffffffffffffffffffffffffffffffffffffff1673ffffffffffffffffffffffffffffffffffffffff168152602001898152602001888152602001878152602001868152602001851515151581526020018415151515815260200183151515158152602001821515151581526020019c5050505050505050505050505060405180910390f35b3480156101e957600080fd5b506101f26109ec565b6040518082815260200191505060405180910390f35b600080815480929190600101919050555060405180610180016040528060005481526020013373ffffffffffffffffffffffffffffffffffffffff168152602001600073ffffffffffffffffffffffffffffffffffffffff168152602001600073ffffffffffffffffffffffffffffffffffffffff1681526020018281526020016064600284028161029657fe5b048152602001428152602001600081526020016000151581526020016000151581526020016000151581526020016001151581525060016000805481526020019081526020016000206000820151816000015560208201518160010160006101000a81548173ffffffffffffffffffffffffffffffffffffffff021916908373ffffffffffffffffffffffffffffffffffffffff16021790555060408201518160020160006101000a81548173ffffffffffffffffffffffffffffffffffffffff021916908373ffffffffffffffffffffffffffffffffffffffff16021790555060608201518160030160006101000a81548173ffffffffffffffffffffffffffffffffffffffff021916908373ffffffffffffffffffffffffffffffffffffffff1602179055506080820151816004015560a0820151816005015560c0820151816006015560e082015181600701556101008201518160080160006101000a81548160ff0219169083151502179055506101208201518160080160016101000a81548160ff0219169083151502179055506101408201518160080160026101000a81548160ff0219169083151502179055506101608201518160080160036101000a81548160ff02191690831515021790555090505050565b6104786109f2565b6001600083815260200190815260200160002060405180610180016040529081600082015481526020016001820160009054906101000a900473ffffffffffffffffffffffffffffffffffffffff1673ffffffffffffffffffffffffffffffffffffffff1673ffffffffffffffffffffffffffffffffffffffff1681526020016002820160009054906101000a900473ffffffffffffffffffffffffffffffffffffffff1673ffffffffffffffffffffffffffffffffffffffff1673ffffffffffffffffffffffffffffffffffffffff1681526020016003820160009054906101000a900473ffffffffffffffffffffffffffffffffffffffff1673ffffffffffffffffffffffffffffffffffffffff1673ffffffffffffffffffffffffffffffffffffffff168152602001600482015481526020016005820154815260200160068201548152602001600782015481526020016008820160009054906101000a900460ff161515151581526020016008820160019054906101000a900460ff161515151581526020016008820160029054906101000a900460ff161515151581526020016008820160039054906101000a900460ff1615151515815250509050600181610160019015159081151581525061069f576040517f08c379a0000000000000000000000000000000000000000000000000000000008152600401808060200182810382526022815260200180610aca6022913960400191505060405180910390fd5b60003410156106f9576040517f08c379a000000000000000000000000000000000000000000000000000000000815260040180806020018281038252602c815260200180610a9e602c913960400191505060405180910390fd5b33816040019073ffffffffffffffffffffffffffffffffffffffff16908173ffffffffffffffffffffffffffffffffffffffff16815250506000816101600190151590811515815250506201518042018160e001818152505080600160008481526020019081526020016000206000820151816000015560208201518160010160006101000a81548173ffffffffffffffffffffffffffffffffffffffff021916908373ffffffffffffffffffffffffffffffffffffffff16021790555060408201518160020160006101000a81548173ffffffffffffffffffffffffffffffffffffffff021916908373ffffffffffffffffffffffffffffffffffffffff16021790555060608201518160030160006101000a81548173ffffffffffffffffffffffffffffffffffffffff021916908373ffffffffffffffffffffffffffffffffffffffff1602179055506080820151816004015560a0820151816005015560c0820151816006015560e082015181600701556101008201518160080160006101000a81548160ff0219169083151502179055506101208201518160080160016101000a81548160ff0219169083151502179055506101408201518160080160026101000a81548160ff0219169083151502179055506101608201518160080160036101000a81548160ff0219169083151502179055509050505050565b60016020528060005260406000206000915090508060000154908060010160009054906101000a900473ffffffffffffffffffffffffffffffffffffffff16908060020160009054906101000a900473ffffffffffffffffffffffffffffffffffffffff16908060030160009054906101000a900473ffffffffffffffffffffffffffffffffffffffff16908060040154908060050154908060060154908060070154908060080160009054906101000a900460ff16908060080160019054906101000a900460ff16908060080160029054906101000a900460ff16908060080160039054906101000a900460ff1690508c565b60005481565b60405180610180016040528060008152602001600073ffffffffffffffffffffffffffffffffffffffff168152602001600073ffffffffffffffffffffffffffffffffffffffff168152602001600073ffffffffffffffffffffffffffffffffffffffff16815260200160008152602001600081526020016000815260200160008152602001600015158152602001600015158152602001600015158152602001600015158152509056fe536d61727420636f6e74726163742076616c7565206d757374202062652067726561746572207468616e203050726f64756374206d75737420626520617661696c61626c6520666f722073616c65a265627a7a7231582075abef6b70af774964b41198a71d72f7cfb8b353bbcb5cb37ef9e782f97c6f0264736f6c63430005100032",
  "source": "pragma solidity ^0.5.0;\n\ncontract Escrow {\n    uint256 public productCount;\n    mapping(uint256 => EscrowProduct) public products;\n\n    struct EscrowProduct {\n        uint256 id;\n        address seller;\n        address buyer;\n        address judge; // Setting judge address by the system based on consensus\n        uint256 amount;\n        uint256 judge_fee;\n        uint256 timestamp;\n        uint256 dispute_time;\n        bool judge_intervention;\n        bool release_amount_seller;\n        bool refund_amount_buyer;\n        bool available;\n    }\n\n    function createProduct(uint256 _amount) public {\n        productCount++;\n        products[productCount] = EscrowProduct(\n            productCount, // setting unique id for each product\n            msg.sender, // seller becomes the one who initiated this function\n            address(0), // buyer address set to default\n            address(0), // judge address set to default\n            _amount, // price of the product\n            (_amount * 2) / 100, // 2% of price of the product set as judge fee\n            now, // time of product creation\n            0, // dispute time set as 0 as default\n            false, // no judge intervention by default\n            false, // no release initiated\n            false, // no refund initiated\n            true // product availability set as true\n        );\n    }\n\n    function purchaseProduct(uint _id) public payable {\n        EscrowProduct memory productModel = products[_id];\n        require(productModel.available = true,'Product must be available for sale');\n        require(msg.value >= 0,'Smart contract value must  be greater than 0');\n\n        productModel.buyer = msg.sender; // Setting the buyer for the product\n\n        productModel.available = false;  //As buyer initiated this transaction this is set to false temporarily\n\n        productModel.dispute_time = now + 86400; // Dispute time initiated upto 24 hours from now\n\n        products[_id] = productModel; // changing the orginal product again by using memory\n    }\n\n}\n",
  "sourcePath": "/media/dinesh/Workstations/Blockchain/Ethereum Projects/Escrow-DApp/src/contracts/Escrow.sol",
  "compiler": {
    "name": "solc",
    "version": "0.5.16+commit.9c3226ce.Emscripten.clang"
  },
  "schemaVersion": "3.0.23",
  "updatedAt": "2020-06-13T04:12:08.347Z",
  "networkType": "ethereum",
  "devdoc": {
    "methods": {}
  },
  "userdoc": {
    "methods": {}
  }
}